:100000000C942C000C943E000C943E000C943E008A
:100010000C943E000C943E000C943E000C943E0068
:100020000C943E000C943E000C943E000C943E0058
:100030000C943E000C943E000C943E000C943E0048
:100040000C943E000C943E000C943E000C943E0038
:100050000C943E001020408011241FBECFE5D8E054
:10006000DEBFCDBF20E0A0E6B0E001C01D92A1360A
:10007000B207E1F70E9440000C94AF000C9400001E
:1000800080EF8ABB8FE08BBB8FEF87BB88BB61E4BF
:1000900084E40E94610088BBFACF8B3051F01CF4DD
:1000A000873049F00AC08D3051F08E3031F480E055
:1000B000089582E0089583E0089580E1089581E045
:1000C0000895623461F018F4613431F010C0633483
:1000D00049F0643451F00BC029B39AB308C026B379
:1000E00097B305C023B394B302C020B391B38D344A
:1000F00011F08D3671F5822F8F700E944D00803186
:1001000069F520E030E027C089B3806F8F3F49F068
:100110000E944D0090916000990F990F890F8F5F99
:1001200008958FE19EE40197F1F700C000008091EF
:1001300060008F5F80936000843010F01092600048
:10014000E0916000F0E0EC5AFF4FE4912F5F3F4FE9
:1001500002C020E030E028303105B4F20895F89470
:02016000FFCFCF
:00000001FF
